:020000040800F2
:10000000000001200D0C00085D0C00085D0C0008CC
:100010005D0C00085D0C00085D0C0008000000008D
:100020000000000000000000000000005D0C00085F
:100030005D0C0008000000005D0C0008AD0A00081F
:10004000000000005D0C00085D0C00085D0C00085D
:100050005D0C00085D0C00087D0300085D0C0008C5
:100060005D0C00085D0C00085D0C0008000000003D
:100070000000000000000000000000000000000080
:1000800000000000000000005D0C000800000000FF
:100090000000000000000000000000005D0C0008EF
:1000A0005D0C00085D0C00085D0C00085D0C00088C
:1000B0005D0C00085D0C0008000000005D0C0008ED
:1000C0005D0C00085D0C00085D0C00085D0C00086C
:1000D0005D0C0008000000000000000000000000AF
:1000E0005D0C00085D0C00085D0C000800000000BD
:1000F0000000000000000000000000000000000000
:10010000000000005D0C0008000000005D0C00080D
:1001100000000000000000000000000000000000DF
:1001200000000000000000000000000000000000CF
:1001300000000000000000000000000000000000BF
:100140000000000000000000000000005D0C00083E
:10015000000000000000000000000000000000009F
:100160005D0C00085D0C00080000000000000000AD
:10017000000000000000000000000000000000007F
:10018000000000005D0C00080000000000000000FE
:040190005D0C0008FA
:1001940010B5054C237833B9044B13B10448AFF3BD
:1001A40000800123237010BD000000200000000027
:1001B400A80C000808B5034B1BB103490348AFF36F
:1001C400008008BD0000000004000020A80C000806
:1001D40080B483B000AF0346FB71084B1B68FA7907
:1001E400012101FA02F21146044A0B43136000BFD5
:1001F4000C37BD465DF8047B704700BF003C0140EE
:1002040080B483B000AF03460A46FB711346BB714A
:10021400BB79022B1CD0022B2FDC002B02D0012B2C
:100224000BD02AE01D4B9B68FA79012101FA02F2F6
:1002340011461A4A0B43936020E0184BDB68FA79A5
:10024400012101FA02F21146144A0B43D36015E06E
:10025400124B9B68FA79012101FA02F211460F4A06
:100264000B4393600D4BDB68FA79012101FA02F22A
:1002740011460A4A0B43D36000E000BF074B1B68DA
:10028400FA79012101FA02F21146044A0B43136080
:1002940000BF0C37BD465DF8047B7047003C01404D
:1002A40080B483B000AF03460A46FB711346BB71AA
:1002B400FB79042B46D801A252F823F0D50200089A
:1002C400EF0200080D030008490300082B0300088F
:1002D400204B1B681F4A23F00F0313601D4B1A6841
:1002E400BB791C4913430B602DE01A4B1B68194A58
:1002F40023F0F0031360174B1B68BA7912011146FF
:10030400144A0B4313601EE0124B1B68114A23F47A
:10031400706313600F4B1B68BA79120211460D4AC1
:100324000B4313600FE00B4B1B680A4A23F4704322
:100334001360084B1B68BA7912031146054A0B4334
:10034400136000E000BF00BF0C37BD465DF8047BBE
:10035400704700BF0038014080B483B000AF7860BC
:10036400044A7B68136000BF0C37BD465DF8047B0C
:10037400704700BF1C00002080B500AF054B1B6810
:100384009847054B5B69044A43F00103536100BF7E
:1003940080BD00BF1C000020003C014080B500AFC0
:1003A4000021002000F0B2FA0E21032000F0AEFA82
:1003B40000220021002000F0CDF8012200210020BD
:1003C40000F040F90A48FFF7C7FF00210020FFF7BB
:1003D40067FF01210020FFF713FF0020FFF7F8FE5D
:1003E400062000F079FA00F0F9FA00BF80BD00BFE2
:1003F400F903000898B500AF154B1B78DBB2002B4E
:100404000BD1144800F040FB00F0F8FA124800F059
:1004140007FB0F4B01221A7018E0104B1B78DBB25C
:100424001C4600F01DFB03460D4A42F824300948DF
:1004340000F02AFB00F0E2FA074800F0F1FA074B5B
:100444001B78DBB20133DAB2044B1A7000BF98BDDB
:10045400240000206904000840420F00AC00002082
:100464002800002080B582B000AF2D4B00221A7006
:100474002C4B1B6844F61F62934241D9294B1B68DD
:1004840046F6605293423BD80023FB7132E0FB797D
:100494001133244A52F82330B3F57A6F17D3FB791A
:1004A4001133204A52F8233041F2F81293420ED805
:1004B400FB79012202FA03F35AB2194B1B78DBB21F
:1004C4005BB213435BB2DAB2154B1A700FE0FB79DF
:1004D400012202FA03F35BB2DB435AB2104B1B78DE
:1004E400DBB25BB213405BB2DAB20D4B1A70FB792C
:1004F4000133FB71FB79072BC9D90B4B1B68984758
:100504000A4B00221A700A4B00221A70054B002273
:100514001A60034B00221A7000BF0837BD4680BD25
:10052400AD0000202800002020000020240000202E
:10053400AC00002080B483B000AF7860044A7B68CC
:10054400136000BF0C37BD465DF8047B704700BFE5
:100554002000002080B483B000AF0346FB710B463B
:10056400BB7113467B71FB79052B57D801A252F856
:1005740023F000BF91050008A9050008C105000883
:10058400D9050008F105000809060008274B1B6877
:100594007979BA79520001FA02F21146234A0B43DF
:1005A40013603CE0224B1B687979BA79520001FA56
:1005B40002F211461E4A0B43136030E01D4B1B68C8
:1005C4007979BA79520001FA02F21146194A0B43B9
:1005D400136024E0184B1B687979BA79520001FA48
:1005E40002F21146144A0B43136018E0134B1B68C4
:1005F4007979BA79520001FA02F211460F4A0B4393
:1006040013600CE00E4B1B687979BA79520001FA39
:1006140002F211460A4A0B43136000E000BF00BF18
:100624000C37BD465DF8047B704700BF00000240F4
:100634000004024000080240000C02400010024086
:10064400001C024080B483B000AF0346FB710B462C
:10065400BB7113467B71FB79052B57D801A252F865
:1006640023F000BF8106000899060008B1060008BF
:10067400C9060008E1060008F9060008274BDB68F4
:100684007979BA79520001FA02F21146234A0B43EE
:10069400D3603CE0224BDB687979BA79520001FAE5
:1006A40002F211461E4A0B43D36030E01D4BDB6857
:1006B4007979BA79520001FA02F21146194A0B43C8
:1006C400D36024E0184BDB687979BA79520001FAD7
:1006D40002F21146144A0B43D36018E0134BDB6853
:1006E4007979BA79520001FA02F211460F4A0B43A2
:1006F400D3600CE00E4BDB687979BA79520001FAC9
:1007040002F211460A4A0B43D36000E000BF00BF67
:100714000C37BD465DF8047B704700BF0000024003
:100724000004024000080240000C02400010024095
:10073400001C024080B483B000AF0346FB710B463B
:10074400BB7113467B717B79012B55D1FB79052B4A
:1007540000F2AC8001A252F823F000BF7907000830
:100764008F070008A5070008BB070008D107000889
:10077400E7070008524B5B69BA79012101FA02F2DA
:1007840011464F4A0B43536193E04E4B5B69BA7970
:10079400012101FA02F211464A4A0B43536188E0EF
:1007A400494B5B69BA79012101FA02F21146464AC2
:1007B4000B4353617DE0454B5B69BA79012101FA32
:1007C40002F21146414A0B43536172E0404B5B69AC
:1007D400BA79012101FA02F211463D4A0B435361F1
:1007E40067E03C4B5B69BA79012101FA02F21146D8
:1007F400384A0B4353615CE0FB79052B58D801A2BE
:1008040052F823F0210800083908000851080008AC
:10081400690800088108000899080008284B5B69EA
:10082400BA79012101FA02F2D2431146244A0B405B
:1008340053613EE0234B5B69BA79012101FA02F26C
:10084400D24311461F4A0B40536132E01E4B5B6991
:10085400BA79012101FA02F2D24311461A4A0B4035
:10086400536126E0194B5B69BA79012101FA02F25E
:10087400D2431146154A0B4053611AE0144B5B698D
:10088400BA79012101FA02F2D2431146104A0B400F
:1008940053610EE00F4B5B69BA79012101FA02F250
:1008A400D24311460B4A0B40536102E000BF00E003
:1008B40000BF00BF0C37BD465DF8047B704700BF26
:1008C400000002400004024000080240000C024004
:1008D40000100240001C024080B483B000AF034605
:1008E400FB71FB7903F01F03012202FA03F1064AAC
:1008F400FB795B09DBB242F8231000BF0C37BD461D
:100904005DF8047B704700BF00E100E080B483B071
:1009140000AF03460A46FB711346BB71FB79032BF8
:1009240036D801A252F823F03D0900085309000803
:10093400690900087F090008194B1B6BBA7901216A
:1009440001FA02F21146164A0B43136321E0144BD9
:100954005B6BBA79012101FA02F21146104A0B438A
:10096400536316E00E4B1B6CBA79012101FA02F2B3
:1009740011460B4A0B4313640BE0094B5B6CBA79C9
:10098400012101FA02F21146054A0B43536400E0C7
:1009940000BF00BF0C37BD465DF8047B704700BF45
:1009A4000038024080B400AF0B4B1B680A4A43F086
:1009B40001031360084B9B68074A23F0010393600B
:1009C400054B9B68044A23F00203936000BFBD46B5
:1009D4005DF8047B704700BF0038024080B400AF6C
:1009E400054B1B68044A23F00403136000BFBD4693
:1009F4005DF8047B704700BF10E000E080B400AFF6
:100A0400064B1B68054A23F001031360034B0022C5
:100A14009A6000BFBD465DF8047B704710E000E0BB
:100A240080B483B000AF78600B4B01221A700B4A7C
:100A34007B685360094B1B68084A43F00203136048
:100A4400064B1B68054A43F00103136000BF0C37D3
:100A5400BD465DF8047B7047B400002010E000E060
:100A640080B483B000AF00237B60064B5A68054B0B
:100A74009B68D31A7B607B6818460C37BD465DF8CB
:100A8400047B704710E000E080B483B000AF78606E
:100A9400044A7B68136000BF0C37BD465DF8047BD5
:100AA400704700BFB000002080B500AF104B1B683A
:100AB4009847104B1B78012B11D10F4B1B680E4A22
:100AC40023F0020313600C4B1B680B4A23F0010351
:100AD4001360094B00225A60074B00229A60064BB0
:100AE4001B68054A43F48033136000BF80BD00BF18
:100AF400B0000020B400002010E000E080B500AF9A
:100B0400FFF750FFFFF74AFC0948FFF713FD0122E6
:100B140001210020FFF71EFD012202210020FFF722
:100B240019FD012203210020FFF714FDFEE700BF99
:100B3400390B000880B500AF324B1B780C2B0FD15A
:100B4400012201210020FFF7F5FD002202210020EF
:100B5400FFF7F0FD002203210020FFF7EBFD4EE03C
:100B6400284B1B78182B0FD1012202210020FFF7FC
:100B7400E1FD002201210020FFF7DCFD002203211A
:100B84000020FFF7D7FD3AE01E4B1B785E2B0FD1F8
:100B9400012203210020FFF7CDFD002201210020C6
:100BA400FFF7C8FD002202210020FFF7C3FD26E065
:100BB400144B1B78082B0FD1012203210020FFF7CF
:100BC400B9FD012201210020FFF7B4FD002202211A
:100BD4000020FFF7AFFD12E00A4B1B78452B0ED126
:100BE400002203210020FFF7A5FD0022012100209F
:100BF400FFF7A0FD002202210020FFF79BFD00BFAC
:100C040080BD00BFAD0000200D488546AFF30080D5
:100C14000C480D490D4A002302E0D458C450043353
:100C2400C4188C42F9D30A4A0A4C002301E0136029
:100C34000432A242FBD300F011F8FFF75FFFFEE796
:100C4400000001200000002000000020C80C000863
:100C540000000020B8000020FEE7000070B50D4D34
:100C64000D4C641BA4100026A64209D10B4D0C4C5C
:100C740000F018F8641BA4100026A64205D170BD2C
:100C840055F8043B98470136EEE755F8043B98477E
:100C94000136F2E7C00C0008C00C0008C00C0008C4
:100CA400C40C0008F8B500BFF8BC08BC9E467047E9
:0C0CB400F8B500BFF8BC08BC9E467047B5
:040CC000B90100086E
:040CC400950100088E
:0400000508000C0DD6
:00000001FF
